{
  "contractName": "Ebay",
  "abi": [
    {
      "inputs": [
        {
          "internalType": "string",
          "name": "_name",
          "type": "string"
        },
        {
          "internalType": "string",
          "name": "_description",
          "type": "string"
        },
        {
          "internalType": "uint256",
          "name": "_min",
          "type": "uint256"
        }
      ],
      "name": "createAuction",
      "outputs": [],
      "stateMutability": "nonpayable",
      "type": "function"
    },
    {
      "inputs": [
        {
          "internalType": "uint256",
          "name": "_auctionId",
          "type": "uint256"
        }
      ],
      "name": "createOffer",
      "outputs": [],
      "stateMutability": "payable",
      "type": "function",
      "payable": true
    },
    {
      "inputs": [
        {
          "internalType": "uint256",
          "name": "_auctionId",
          "type": "uint256"
        }
      ],
      "name": "transaction",
      "outputs": [],
      "stateMutability": "nonpayable",
      "type": "function"
    },
    {
      "inputs": [],
      "name": "getAuctions",
      "outputs": [
        {
          "components": [
            {
              "internalType": "uint256",
              "name": "id",
              "type": "uint256"
            },
            {
              "internalType": "address payable",
              "name": "seller",
              "type": "address"
            },
            {
              "internalType": "string",
              "name": "name",
              "type": "string"
            },
            {
              "internalType": "string",
              "name": "description",
              "type": "string"
            },
            {
              "internalType": "uint256",
              "name": "min",
              "type": "uint256"
            },
            {
              "internalType": "uint256",
              "name": "bestOfferId",
              "type": "uint256"
            },
            {
              "internalType": "uint256[]",
              "name": "offerIds",
              "type": "uint256[]"
            }
          ],
          "internalType": "struct Ebay.Auction[]",
          "name": "",
          "type": "tuple[]"
        }
      ],
      "stateMutability": "view",
      "type": "function",
      "constant": true
    },
    {
      "inputs": [
        {
          "internalType": "address",
          "name": "_user",
          "type": "address"
        }
      ],
      "name": "getUserAuctions",
      "outputs": [
        {
          "components": [
            {
              "internalType": "uint256",
              "name": "id",
              "type": "uint256"
            },
            {
              "internalType": "address payable",
              "name": "seller",
              "type": "address"
            },
            {
              "internalType": "string",
              "name": "name",
              "type": "string"
            },
            {
              "internalType": "string",
              "name": "description",
              "type": "string"
            },
            {
              "internalType": "uint256",
              "name": "min",
              "type": "uint256"
            },
            {
              "internalType": "uint256",
              "name": "bestOfferId",
              "type": "uint256"
            },
            {
              "internalType": "uint256[]",
              "name": "offerIds",
              "type": "uint256[]"
            }
          ],
          "internalType": "struct Ebay.Auction[]",
          "name": "",
          "type": "tuple[]"
        }
      ],
      "stateMutability": "view",
      "type": "function",
      "constant": true
    },
    {
      "inputs": [
        {
          "internalType": "address",
          "name": "_user",
          "type": "address"
        }
      ],
      "name": "getUserOffers",
      "outputs": [
        {
          "components": [
            {
              "internalType": "uint256",
              "name": "id",
              "type": "uint256"
            },
            {
              "internalType": "uint256",
              "name": "auctionId",
              "type": "uint256"
            },
            {
              "internalType": "address payable",
              "name": "buyer",
              "type": "address"
            },
            {
              "internalType": "uint256",
              "name": "price",
              "type": "uint256"
            }
          ],
          "internalType": "struct Ebay.Offer[]",
          "name": "",
          "type": "tuple[]"
        }
      ],
      "stateMutability": "view",
      "type": "function",
      "constant": true
    }
  ],
  "bytecode": "0x60806040526001600455600160055534801561001a57600080fd5b50611b528061002a6000396000f3fe6080604052600436106100555760003560e01c806346bd08411461005a578063661d2c2c14610083578063a269993d146100c0578063d7c06919146100dc578063ddf2070614610107578063ff3ad0b414610130575b600080fd5b34801561006657600080fd5b50610081600480360381019061007c91906113f9565b61016d565b005b34801561008f57600080fd5b506100aa60048036038101906100a59190611347565b610369565b6040516100b791906117f5565b60405180910390f35b6100da60048036038101906100d591906113f9565b61057c565b005b3480156100e857600080fd5b506100f16107c8565b6040516100fe91906117d3565b60405180910390f35b34801561011357600080fd5b5061012e60048036038101906101299190611370565b610adf565b005b34801561013c57600080fd5b5061015760048036038101906101529190611347565b610dc4565b60405161016491906117d3565b60405180910390f35b8060008111801561017f575060045481105b6101be576040517f08c379a00000000000000000000000000000000000000000000000000000000081526004016101b590611837565b60405180910390fd5b6000806000848152602001908152602001600020905060006001600083600501548152602001908152602001600020905060005b82600601805490508110156102f357600083600601828154811061023f577f4e487b7100000000000000000000000000000000000000000000000000000000600052603260045260246000fd5b90600052602060002001549050836005015481146102df5760006001600083815260200190815260200160002090508060020160009054906101000a900473ffffffffffffffffffffffffffffffffffffffff1673ffffffffffffffffffffffffffffffffffffffff166108fc82600301549081150290604051600060405180830381858888f193505050501580156102dc573d6000803e3d6000fd5b50505b5080806102eb90611a36565b9150506101f2565b508160010160009054906101000a900473ffffffffffffffffffffffffffffffffffffffff1673ffffffffffffffffffffffffffffffffffffffff166108fc82600301549081150290604051600060405180830381858888f19350505050158015610362573d6000803e3d6000fd5b5050505050565b60606000600360008473ffffffffffffffffffffffffffffffffffffffff1673ffffffffffffffffffffffffffffffffffffffff16815260200190815260200160002090506000818054905067ffffffffffffffff8111156103f4577f4e487b7100000000000000000000000000000000000000000000000000000000600052604160045260246000fd5b60405190808252806020026020018201604052801561042d57816020015b61041a611152565b8152602001906001900390816104125790505b50905060005b828054905081101561057157600083828154811061047a577f4e487b7100000000000000000000000000000000000000000000000000000000600052603260045260246000fd5b906000526020600020015490506001600082815260200190815260200160002060405180608001604052908160008201548152602001600182015481526020016002820160009054906101000a900473ffffffffffffffffffffffffffffffffffffffff1673ffffffffffffffffffffffffffffffffffffffff1673ffffffffffffffffffffffffffffffffffffffff168152602001600382015481525050838381518110610552577f4e487b7100000000000000000000000000000000000000000000000000000000600052603260045260246000fd5b602002602001018190525050808061056990611a36565b915050610433565b508092505050919050565b8060008111801561058e575060045481105b6105cd576040517f08c379a00000000000000000000000000000000000000000000000000000000081526004016105c490611837565b60405180910390fd5b60008060008481526020019081526020016000209050600060016000836005015481526020019081526020016000209050816004015434101580156106155750806003015434115b610654576040517f08c379a000000000000000000000000000000000000000000000000000000000815260040161064b90611857565b60405180910390fd5b6005548260050181905550816006016005549080600181540180825580915050600190039060005260206000200160009091909190915055604051806080016040528060055481526020018581526020013373ffffffffffffffffffffffffffffffffffffffff16815260200134815250600160006005548152602001908152602001600020600082015181600001556020820151816001015560408201518160020160006101000a81548173ffffffffffffffffffffffffffffffffffffffff021916908373ffffffffffffffffffffffffffffffffffffffff16021790555060608201518160030155905050600360003373ffffffffffffffffffffffffffffffffffffffff1673ffffffffffffffffffffffffffffffffffffffff1681526020019081526020016000206005549080600181540180825580915050600190039060005260206000200160009091909190915055600560008154809291906107bd90611a36565b919050555050505050565b6060600060016004546107db919061194f565b67ffffffffffffffff81111561081a577f4e487b7100000000000000000000000000000000000000000000000000000000600052604160045260246000fd5b60405190808252806020026020018201604052801561085357816020015b610840611190565b8152602001906001900390816108385790505b5090506000600190505b600454811015610ad7576000808281526020019081526020016000206040518060e0016040529081600082015481526020016001820160009054906101000a900473ffffffffffffffffffffffffffffffffffffffff1673ffffffffffffffffffffffffffffffffffffffff1673ffffffffffffffffffffffffffffffffffffffff1681526020016002820180546108f490611a04565b80601f016020809104026020016040519081016040528092919081815260200182805461092090611a04565b801561096d5780601f106109425761010080835404028352916020019161096d565b820191906000526020600020905b81548152906001019060200180831161095057829003601f168201915b5050505050815260200160038201805461098690611a04565b80601f01602080910402602001604051908101604052809291908181526020018280546109b290611a04565b80156109ff5780601f106109d4576101008083540402835291602001916109ff565b820191906000526020600020905b8154815290600101906020018083116109e257829003601f168201915b50505050508152602001600482015481526020016005820154815260200160068201805480602002602001604051908101604052809291908181526020018280548015610a6b57602002820191906000526020600020905b815481526020019060010190808311610a57575b50505050508152505082600183610a82919061194f565b81518110610ab9577f4e487b7100000000000000000000000000000000000000000000000000000000600052603260045260246000fd5b60200260200101819052508080610acf90611a36565b91505061085d565b508091505090565b60008111610b22576040517f08c379a0000000000000000000000000000000000000000000000000000000008152600401610b1990611817565b60405180910390fd5b60008067ffffffffffffffff811115610b64577f4e487b7100000000000000000000000000000000000000000000000000000000600052604160045260246000fd5b604051908082528060200260200182016040528015610b925781602001602082028036833780820191505090505b5090506040518060e0016040528060045481526020013373ffffffffffffffffffffffffffffffffffffffff16815260200187878080601f016020809104026020016040519081016040528093929190818152602001838380828437600081840152601f19601f82011690508083019250505050505050815260200185858080601f016020809104026020016040519081016040528093929190818152602001838380828437600081840152601f19601f820116905080830192505050505050508152602001838152602001600081526020018281525060008060045481526020019081526020016000206000820151816000015560208201518160010160006101000a81548173ffffffffffffffffffffffffffffffffffffffff021916908373ffffffffffffffffffffffffffffffffffffffff1602179055506040820151816002019080519060200190610cea9291906111e3565b506060820151816003019080519060200190610d079291906111e3565b506080820151816004015560a0820151816005015560c0820151816006019080519060200190610d38929190611269565b50905050600260003373ffffffffffffffffffffffffffffffffffffffff1673ffffffffffffffffffffffffffffffffffffffff168152602001908152602001600020600454908060018154018082558091505060019003906000526020600020016000909190919091505560046000815480929190610db790611a36565b9190505550505050505050565b60606000600260008473ffffffffffffffffffffffffffffffffffffffff1673ffffffffffffffffffffffffffffffffffffffff16815260200190815260200160002090506000818054905067ffffffffffffffff811115610e4f577f4e487b7100000000000000000000000000000000000000000000000000000000600052604160045260246000fd5b604051908082528060200260200182016040528015610e8857816020015b610e75611190565b815260200190600190039081610e6d5790505b50905060005b8280549050811015611147576000838281548110610ed5577f4e487b7100000000000000000000000000000000000000000000000000000000600052603260045260246000fd5b906000526020600020015490506000808281526020019081526020016000206040518060e0016040529081600082015481526020016001820160009054906101000a900473ffffffffffffffffffffffffffffffffffffffff1673ffffffffffffffffffffffffffffffffffffffff1673ffffffffffffffffffffffffffffffffffffffff168152602001600282018054610f6f90611a04565b80601f0160208091040260200160405190810160405280929190818152602001828054610f9b90611a04565b8015610fe85780601f10610fbd57610100808354040283529160200191610fe8565b820191906000526020600020905b815481529060010190602001808311610fcb57829003601f168201915b5050505050815260200160038201805461100190611a04565b80601f016020809104026020016040519081016040528092919081815260200182805461102d90611a04565b801561107a5780601f1061104f5761010080835404028352916020019161107a565b820191906000526020600020905b81548152906001019060200180831161105d57829003601f168201915b505050505081526020016004820154815260200160058201548152602001600682018054806020026020016040519081016040528092919081815260200182805480156110e657602002820191906000526020600020905b8154815260200190600101908083116110d2575b505050505081525050838381518110611128577f4e487b7100000000000000000000000000000000000000000000000000000000600052603260045260246000fd5b602002602001018190525050808061113f90611a36565b915050610e8e565b508092505050919050565b60405180608001604052806000815260200160008152602001600073ffffffffffffffffffffffffffffffffffffffff168152602001600081525090565b6040518060e0016040528060008152602001600073ffffffffffffffffffffffffffffffffffffffff16815260200160608152602001606081526020016000815260200160008152602001606081525090565b8280546111ef90611a04565b90600052602060002090601f0160209004810192826112115760008555611258565b82601f1061122a57805160ff1916838001178555611258565b82800160010185558215611258579182015b8281111561125757825182559160200191906001019061123c565b5b50905061126591906112b6565b5090565b8280548282559060005260206000209081019282156112a5579160200282015b828111156112a4578251825591602001919060010190611289565b5b5090506112b291906112b6565b5090565b5b808211156112cf5760008160009055506001016112b7565b5090565b6000813590506112e281611aee565b92915050565b60008083601f8401126112fa57600080fd5b8235905067ffffffffffffffff81111561131357600080fd5b60208301915083600182028301111561132b57600080fd5b9250929050565b60008135905061134181611b05565b92915050565b60006020828403121561135957600080fd5b6000611367848285016112d3565b91505092915050565b60008060008060006060868803121561138857600080fd5b600086013567ffffffffffffffff8111156113a257600080fd5b6113ae888289016112e8565b9550955050602086013567ffffffffffffffff8111156113cd57600080fd5b6113d9888289016112e8565b935093505060406113ec88828901611332565b9150509295509295909350565b60006020828403121561140b57600080fd5b600061141984828501611332565b91505092915050565b600061142e83836116c5565b905092915050565b6000611442838361176f565b60808301905092915050565b600061145a83836117c4565b60208301905092915050565b61146f81611995565b82525050565b6000611480826118a7565b61148a81856118fa565b93508360208202850161149c85611877565b8060005b858110156114d857848403895281516114b98582611422565b94506114c4836118d3565b925060208a019950506001810190506114a0565b50829750879550505050505092915050565b60006114f5826118b2565b6114ff818561190b565b935061150a83611887565b8060005b8381101561153b5781516115228882611436565b975061152d836118e0565b92505060018101905061150e565b5085935050505092915050565b6000611553826118bd565b61155d818561191c565b935061156883611897565b8060005b83811015611599578151611580888261144e565b975061158b836118ed565b92505060018101905061156c565b5085935050505092915050565b60006115b1826118c8565b6115bb818561192d565b93506115cb8185602086016119d1565b6115d481611add565b840191505092915050565b60006115ec601e8361193e565b91507f6d696e696d756d206d7573742062652067726561746572207468616e203000006000830152602082019050919050565b600061162c60168361193e565b91507f41756374696f6e20646f6573206e6f74206578697374000000000000000000006000830152602082019050919050565b600061166c60388361193e565b91507f6d73672e76616c7565206d75737420626520677265617465722068656e20746860008301527f65206d696e696d756d20616e642062657374206f6666657200000000000000006020830152604082019050919050565b600060e0830160008301516116dd60008601826117c4565b5060208301516116f06020860182611466565b506040830151848203604086015261170882826115a6565b9150506060830151848203606086015261172282826115a6565b915050608083015161173760808601826117c4565b5060a083015161174a60a08601826117c4565b5060c083015184820360c08601526117628282611548565b9150508091505092915050565b60808201600082015161178560008501826117c4565b50602082015161179860208501826117c4565b5060408201516117ab6040850182611466565b5060608201516117be60608501826117c4565b50505050565b6117cd816119c7565b82525050565b600060208201905081810360008301526117ed8184611475565b905092915050565b6000602082019050818103600083015261180f81846114ea565b905092915050565b60006020820190508181036000830152611830816115df565b9050919050565b600060208201905081810360008301526118508161161f565b9050919050565b600060208201905081810360008301526118708161165f565b9050919050565b6000819050602082019050919050565b6000819050602082019050919050565b6000819050602082019050919050565b600081519050919050565b600081519050919050565b600081519050919050565b600081519050919050565b6000602082019050919050565b6000602082019050919050565b6000602082019050919050565b600082825260208201905092915050565b600082825260208201905092915050565b600082825260208201905092915050565b600082825260208201905092915050565b600082825260208201905092915050565b600061195a826119c7565b9150611965836119c7565b92508282101561197857611977611a7f565b5b828203905092915050565b600061198e826119a7565b9050919050565b60006119a0826119a7565b9050919050565b600073ffffffffffffffffffffffffffffffffffffffff82169050919050565b6000819050919050565b60005b838110156119ef5780820151818401526020810190506119d4565b838111156119fe576000848401525b50505050565b60006002820490506001821680611a1c57607f821691505b60208210811415611a3057611a2f611aae565b5b50919050565b6000611a41826119c7565b91507fffffffffffffffffffffffffffffffffffffffffffffffffffffffffffffffff821415611a7457611a73611a7f565b5b600182019050919050565b7f4e487b7100000000000000000000000000000000000000000000000000000000600052601160045260246000fd5b7f4e487b7100000000000000000000000000000000000000000000000000000000600052602260045260246000fd5b6000601f19601f8301169050919050565b611af781611983565b8114611b0257600080fd5b50565b611b0e816119c7565b8114611b1957600080fd5b5056fea264697066735822122082242306a3d95cd0572e83d6e3cf90f7f814a22961de482fb8f7c15ca458963e64736f6c63430008000033",
  "immutableReferences": {},
  "source": "// SPDX-License-Identifier: GPL-3.0\npragma solidity >= 0.5.0 <0.9.0;\n\ncontract Ebay {\n    struct Auction {\n        uint id;\n        address payable seller;\n        string name;\n        string description;\n        uint min;\n        uint bestOfferId;\n        uint[] offerIds;\n    }\n\n    struct Offer{\n        uint id;\n        uint auctionId;\n        address payable buyer;\n        uint price; \n    }\n\n    mapping(uint => Auction) private auctions;\n    mapping(uint => Offer) private offers;\n\n    mapping(address => uint[]) private auctionList;\n    mapping (address => uint[]) private offerList;\n\n    uint private newAuctionId = 1;\n    uint private newOfferId=1;\n\n    function createAuction(string calldata _name, string calldata _description, uint _min) external  {\n        require(_min > 0, \"minimum must be greater than 0\");\n        uint[] memory offerIds = new uint[](0);\n\n        auctions[newAuctionId]= Auction(newAuctionId, payable(msg.sender),_name, _description, _min, 0,offerIds);\n        auctionList[msg.sender].push(newAuctionId);\n        newAuctionId++;\n    }\n\n    function createOffer(uint _auctionId) external payable auctionExists(_auctionId) {\n        Auction storage auction = auctions[_auctionId];\n        Offer storage bestOffer = offers[auction.bestOfferId];\n\n        require(msg.value >= auction.min  && msg.value > bestOffer.price, \"msg.value must be greater hen the minimum and best offer\");\n\n        auction.bestOfferId = newOfferId;\n        auction.offerIds.push(newOfferId);\n\n        offers[newOfferId] = Offer(newOfferId,_auctionId, payable(msg.sender),msg.value);\n        offerList[msg.sender].push(newOfferId);\n        newOfferId++;\n\n\n    }\n\n    function transaction(uint _auctionId) external auctionExists(_auctionId) {\n        Auction storage auction = auctions[_auctionId];\n        Offer storage bestOffer = offers[auction.bestOfferId];\n\n        for(uint i =0;i<auction.offerIds.length;i++){\n            uint offerId = auction.offerIds[i];\n\n            if(offerId != auction.bestOfferId){\n                Offer storage offer = offers[offerId];\n                offer.buyer.transfer(offer.price); //contract -> b ether transfer\n            }\n        }\n\n        auction.seller.transfer(bestOffer.price); //contract -> a(seller)\n    }\n\n    function getAuctions() external view returns(Auction[] memory){\n        Auction[] memory _auctions = new Auction[](newAuctionId -1 );\n\n        for(uint i = 1; i< newAuctionId ; i++){\n            _auctions[i-1] = auctions[i];\n        }\n        return _auctions;\n    } \n\n    function getUserAuctions(address _user) external  view returns(Auction[] memory){\n        uint[] storage userAuctionIds = auctionList[_user];\n        Auction[] memory _auctions = new Auction[](userAuctionIds.length);\n        for(uint i =0;i< userAuctionIds.length; i++){\n            uint auctionId = userAuctionIds[i];\n            _auctions[i] = auctions[auctionId];\n        }\n        return _auctions;\n    } \n\n    function getUserOffers(address _user) external  view returns(Offer[] memory){\n        uint[] storage userOfferIds = offerList[_user];\n        Offer[] memory _offers = new Offer[](userOfferIds.length);\n\n        for(uint i =0;i<userOfferIds.length; i++){\n            uint offerId = userOfferIds[i];\n            _offers[i] = offers[offerId];\n\n        }\n        return _offers;\n    }\n\n    modifier auctionExists( uint _auctionId){\n        require(_auctionId > 0 && _auctionId < newAuctionId, \"Auction does not exist\");\n        _;\n    }\n}",
  "sourcePath": "/Users/deependersingh/dev/solidity/ebay-solidity/contracts/ebay.sol",
  "compiler": {
    "name": "solc",
    "version": "0.8.0+commit.c7dfd78e.Emscripten.clang"
  },
  "schemaVersion": "3.4.16",
  "updatedAt": "2024-07-07T14:44:11.313Z",
  "networkType": "ethereum",
  "devdoc": {
    "kind": "dev",
    "methods": {},
    "version": 1
  },
  "userdoc": {
    "kind": "user",
    "methods": {},
    "version": 1
  }
}